{
  "_format": "hh-sol-artifact-1",
  "contractName": "AirdropContract",
  "sourceName": "contracts/AirdropContract.sol",
  "abi": [
    {
      "inputs": [
        {
          "internalType": "address",
          "name": "_tokenAddress",
          "type": "address"
        },
        {
          "internalType": "bytes32",
          "name": "_merkleRootHash",
          "type": "bytes32"
        }
      ],
      "stateMutability": "nonpayable",
      "type": "constructor"
    },
    {
      "inputs": [],
      "name": "ClaimingFailed",
      "type": "error"
    },
    {
      "inputs": [],
      "name": "InsufficientFundsPleaseTryAgain",
      "type": "error"
    },
    {
      "inputs": [],
      "name": "InsufficientTokenAmountFromSender",
      "type": "error"
    },
    {
      "inputs": [],
      "name": "NoTokensRemainingToWithdraw",
      "type": "error"
    },
    {
      "inputs": [],
      "name": "SorryYouAreNotEligible",
      "type": "error"
    },
    {
      "inputs": [],
      "name": "UserAlreadyClaimed",
      "type": "error"
    },
    {
      "inputs": [],
      "name": "WithdrawalFailed",
      "type": "error"
    },
    {
      "inputs": [],
      "name": "YouAreNotTheOwner",
      "type": "error"
    },
    {
      "inputs": [],
      "name": "ZeroAddressNotAllowed",
      "type": "error"
    },
    {
      "inputs": [],
      "name": "ZeroAmountNotAllowed",
      "type": "error"
    },
    {
      "anonymous": false,
      "inputs": [
        {
          "indexed": true,
          "internalType": "address",
          "name": "sender",
          "type": "address"
        },
        {
          "indexed": false,
          "internalType": "uint256",
          "name": "amount",
          "type": "uint256"
        }
      ],
      "name": "DepositIntoContractSuccessful",
      "type": "event"
    },
    {
      "anonymous": false,
      "inputs": [],
      "name": "UserClaimedTokens",
      "type": "event"
    },
    {
      "inputs": [
        {
          "internalType": "bytes32",
          "name": "_new_merkle_root",
          "type": "bytes32"
        }
      ],
      "name": "UpdateMerkleRoot",
      "outputs": [],
      "stateMutability": "nonpayable",
      "type": "function"
    },
    {
      "inputs": [],
      "name": "WithdrawRemainingTokens",
      "outputs": [],
      "stateMutability": "nonpayable",
      "type": "function"
    },
    {
      "inputs": [
        {
          "internalType": "uint256",
          "name": "_amount",
          "type": "uint256"
        },
        {
          "internalType": "bytes32[]",
          "name": "_merkleProof",
          "type": "bytes32[]"
        }
      ],
      "name": "claimReward",
      "outputs": [],
      "stateMutability": "nonpayable",
      "type": "function"
    },
    {
      "inputs": [
        {
          "internalType": "uint256",
          "name": "_amount",
          "type": "uint256"
        }
      ],
      "name": "depositIntoContract",
      "outputs": [],
      "stateMutability": "nonpayable",
      "type": "function"
    },
    {
      "inputs": [],
      "name": "merkleRootHash",
      "outputs": [
        {
          "internalType": "bytes32",
          "name": "",
          "type": "bytes32"
        }
      ],
      "stateMutability": "view",
      "type": "function"
    },
    {
      "inputs": [],
      "name": "owner",
      "outputs": [
        {
          "internalType": "address",
          "name": "",
          "type": "address"
        }
      ],
      "stateMutability": "view",
      "type": "function"
    },
    {
      "inputs": [],
      "name": "tokenAddress",
      "outputs": [
        {
          "internalType": "address",
          "name": "",
          "type": "address"
        }
      ],
      "stateMutability": "view",
      "type": "function"
    }
  ],
  "bytecode": "0x608060405234801561001057600080fd5b5060405161090138038061090183398101604081905261002f91610066565b60018054336001600160a01b031991821617909155600280549091166001600160a01b0393909316929092179091556000556100a0565b6000806040838503121561007957600080fd5b82516001600160a01b038116811461009057600080fd5b6020939093015192949293505050565b610852806100af6000396000f3fe608060405234801561001057600080fd5b506004361061007d5760003560e01c8063938f25181161005b578063938f2518146100cf5780639d76ea58146100e2578063ae8bdbc1146100f5578063ddb6dfc41461010857600080fd5b8063048579be146100825780630a46b993146100975780638da5cb5b1461009f575b600080fd5b61009561009036600461070c565b61011f565b005b61009561028d565b6001546100b2906001600160a01b031681565b6040516001600160a01b0390911681526020015b60405180910390f35b6100956100dd366004610725565b6103be565b6002546100b2906001600160a01b031681565b61009561010336600461070c565b6104fc565b61011160005481565b6040519081526020016100c6565b610127610509565b60008111610148576040516307a1cab560e11b815260040160405180910390fd5b6002546040516370a0823160e01b81523360048201526000916001600160a01b0316906370a0823190602401602060405180830381865afa158015610191573d6000803e3d6000fd5b505050506040513d601f19601f820116820180604052508101906101b591906107a4565b9050818110156101d85760405163672fa43960e11b815260040160405180910390fd5b6002546040516323b872dd60e01b8152336004820152306024820152604481018490526001600160a01b03909116906323b872dd906064016020604051808303816000875af115801561022f573d6000803e3d6000fd5b505050506040513d601f19601f8201168201806040525081019061025391906107bd565b5060405182815233907f2d652cc074007db4dde0365f9b43c5384331768e87e9081d6339970e25be3f289060200160405180910390a25050565b610295610509565b6002546040516370a0823160e01b81523060048201526000916001600160a01b0316906370a0823190602401602060405180830381865afa1580156102de573d6000803e3d6000fd5b505050506040513d601f19601f8201168201806040525081019061030291906107a4565b9050600081116103255760405163533d4ad560e01b815260040160405180910390fd5b60025460015460405163a9059cbb60e01b81526001600160a01b0391821660048201526024810184905291169063a9059cbb906044016020604051808303816000875af115801561037a573d6000803e3d6000fd5b505050506040513d601f19601f8201168201806040525081019061039e91906107bd565b6103bb576040516327fcd9d160e01b815260040160405180910390fd5b50565b336103dc576040516342bcdf7f60e11b815260040160405180910390fd5b6040516bffffffffffffffffffffffff193360601b1660208201526034810184905260009060540160405160208183030381529060405280519060200120905061045b83838080602002602001604051908101604052809392919081815260200183836020028082843760009201829052505492508591506105549050565b6104785760405163b2649c1f60e01b815260040160405180910390fd5b3360009081526003602052604090205460ff16156104a957604051638246991960e01b815260040160405180910390fd5b336000818152600360205260409020805460ff191660011790556104cd908561056a565b6040517f0885b728161c6286e2dc74ae983e59d3bff0509c7c483afdc9bc4b5557ead40590600090a150505050565b610504610509565b600055565b33610527576040516342bcdf7f60e11b815260040160405180910390fd5b6001546001600160a01b031633146105525760405163685d3b5f60e11b815260040160405180910390fd5b565b600082610561858461068d565b14949350505050565b6002546040516370a0823160e01b815230600482015282916001600160a01b0316906370a0823190602401602060405180830381865afa1580156105b2573d6000803e3d6000fd5b505050506040513d601f19601f820116820180604052508101906105d691906107a4565b10156105f55760405163293beedf60e21b815260040160405180910390fd5b60025460405163a9059cbb60e01b81526001600160a01b038481166004830152602482018490529091169063a9059cbb906044016020604051808303816000875af1158015610648573d6000803e3d6000fd5b505050506040513d601f19601f8201168201806040525081019061066c91906107bd565b61068957604051633ff2075b60e11b815260040160405180910390fd5b5050565b600081815b84518110156106d2576106be828683815181106106b1576106b16107df565b60200260200101516106da565b9150806106ca816107f5565b915050610692565b509392505050565b60008183106106f6576000828152602084905260409020610705565b60008381526020839052604090205b9392505050565b60006020828403121561071e57600080fd5b5035919050565b60008060006040848603121561073a57600080fd5b83359250602084013567ffffffffffffffff8082111561075957600080fd5b818601915086601f83011261076d57600080fd5b81358181111561077c57600080fd5b8760208260051b850101111561079157600080fd5b6020830194508093505050509250925092565b6000602082840312156107b657600080fd5b5051919050565b6000602082840312156107cf57600080fd5b8151801515811461070557600080fd5b634e487b7160e01b600052603260045260246000fd5b60006001820161081557634e487b7160e01b600052601160045260246000fd5b506001019056fea26469706673582212209d96652b260f3434c66018876433474b754ad3372ef1725baf1c21146363f80664736f6c63430008140033",
  "linkReferences": {},
  "deployedLinkReferences": {}
}